{
  "_format": "hh-sol-artifact-1",
  "contractName": "EdArt",
  "sourceName": "contracts/EdArt.sol",
  "abi": [
    {
      "inputs": [
        {
          "internalType": "address payable",
          "name": "shareholderAddress_",
          "type": "address"
        },
        {
          "internalType": "string",
          "name": "baseURI_",
          "type": "string"
        },
        {
          "internalType": "uint256",
          "name": "cost_",
          "type": "uint256"
        },
        {
          "internalType": "uint256",
          "name": "maxSupply",
          "type": "uint256"
        },
        {
          "internalType": "uint256",
          "name": "maxPurchase",
          "type": "uint256"
        }
      ],
      "stateMutability": "nonpayable",
      "type": "constructor"
    },
    {
      "anonymous": false,
      "inputs": [
        {
          "indexed": true,
          "internalType": "address",
          "name": "owner",
          "type": "address"
        },
        {
          "indexed": true,
          "internalType": "address",
          "name": "approved",
          "type": "address"
        },
        {
          "indexed": true,
          "internalType": "uint256",
          "name": "tokenId",
          "type": "uint256"
        }
      ],
      "name": "Approval",
      "type": "event"
    },
    {
      "anonymous": false,
      "inputs": [
        {
          "indexed": true,
          "internalType": "address",
          "name": "owner",
          "type": "address"
        },
        {
          "indexed": true,
          "internalType": "address",
          "name": "operator",
          "type": "address"
        },
        {
          "indexed": false,
          "internalType": "bool",
          "name": "approved",
          "type": "bool"
        }
      ],
      "name": "ApprovalForAll",
      "type": "event"
    },
    {
      "anonymous": false,
      "inputs": [
        {
          "indexed": true,
          "internalType": "address",
          "name": "to",
          "type": "address"
        },
        {
          "indexed": true,
          "internalType": "uint256",
          "name": "tokenId",
          "type": "uint256"
        }
      ],
      "name": "Burn",
      "type": "event"
    },
    {
      "anonymous": false,
      "inputs": [
        {
          "indexed": true,
          "internalType": "address",
          "name": "to",
          "type": "address"
        },
        {
          "indexed": true,
          "internalType": "uint256",
          "name": "tokenId",
          "type": "uint256"
        }
      ],
      "name": "Mint",
      "type": "event"
    },
    {
      "anonymous": false,
      "inputs": [
        {
          "indexed": true,
          "internalType": "address",
          "name": "previousOwner",
          "type": "address"
        },
        {
          "indexed": true,
          "internalType": "address",
          "name": "newOwner",
          "type": "address"
        }
      ],
      "name": "OwnershipTransferred",
      "type": "event"
    },
    {
      "anonymous": false,
      "inputs": [
        {
          "indexed": true,
          "internalType": "address",
          "name": "to",
          "type": "address"
        },
        {
          "indexed": true,
          "internalType": "uint256",
          "name": "tokenId",
          "type": "uint256"
        }
      ],
      "name": "Redeem",
      "type": "event"
    },
    {
      "anonymous": false,
      "inputs": [
        {
          "indexed": true,
          "internalType": "address",
          "name": "to",
          "type": "address"
        }
      ],
      "name": "Reserve",
      "type": "event"
    },
    {
      "anonymous": false,
      "inputs": [
        {
          "indexed": true,
          "internalType": "address",
          "name": "from",
          "type": "address"
        },
        {
          "indexed": true,
          "internalType": "address",
          "name": "to",
          "type": "address"
        },
        {
          "indexed": true,
          "internalType": "uint256",
          "name": "tokenId",
          "type": "uint256"
        }
      ],
      "name": "Transfer",
      "type": "event"
    },
    {
      "anonymous": false,
      "inputs": [
        {
          "indexed": true,
          "internalType": "address",
          "name": "to",
          "type": "address"
        }
      ],
      "name": "Withdraw",
      "type": "event"
    },
    {
      "inputs": [],
      "name": "PROVENANCE",
      "outputs": [
        {
          "internalType": "string",
          "name": "",
          "type": "string"
        }
      ],
      "stateMutability": "view",
      "type": "function"
    },
    {
      "inputs": [
        {
          "internalType": "address",
          "name": "to",
          "type": "address"
        },
        {
          "internalType": "uint256",
          "name": "tokenId",
          "type": "uint256"
        }
      ],
      "name": "approve",
      "outputs": [],
      "stateMutability": "nonpayable",
      "type": "function"
    },
    {
      "inputs": [
        {
          "internalType": "address",
          "name": "owner",
          "type": "address"
        }
      ],
      "name": "balanceOf",
      "outputs": [
        {
          "internalType": "uint256",
          "name": "",
          "type": "uint256"
        }
      ],
      "stateMutability": "view",
      "type": "function"
    },
    {
      "inputs": [
        {
          "internalType": "uint256",
          "name": "tokenId",
          "type": "uint256"
        }
      ],
      "name": "burn",
      "outputs": [],
      "stateMutability": "nonpayable",
      "type": "function"
    },
    {
      "inputs": [],
      "name": "cost",
      "outputs": [
        {
          "internalType": "uint256",
          "name": "",
          "type": "uint256"
        }
      ],
      "stateMutability": "view",
      "type": "function"
    },
    {
      "inputs": [
        {
          "internalType": "uint256",
          "name": "tokenId",
          "type": "uint256"
        }
      ],
      "name": "getApproved",
      "outputs": [
        {
          "internalType": "address",
          "name": "",
          "type": "address"
        }
      ],
      "stateMutability": "view",
      "type": "function"
    },
    {
      "inputs": [
        {
          "internalType": "address",
          "name": "owner",
          "type": "address"
        },
        {
          "internalType": "address",
          "name": "operator",
          "type": "address"
        }
      ],
      "name": "isApprovedForAll",
      "outputs": [
        {
          "internalType": "bool",
          "name": "",
          "type": "bool"
        }
      ],
      "stateMutability": "view",
      "type": "function"
    },
    {
      "inputs": [
        {
          "internalType": "uint256",
          "name": "tokenId",
          "type": "uint256"
        }
      ],
      "name": "isRedeemed",
      "outputs": [
        {
          "internalType": "bool",
          "name": "",
          "type": "bool"
        }
      ],
      "stateMutability": "view",
      "type": "function"
    },
    {
      "inputs": [],
      "name": "maxTokenPurchase",
      "outputs": [
        {
          "internalType": "uint256",
          "name": "",
          "type": "uint256"
        }
      ],
      "stateMutability": "view",
      "type": "function"
    },
    {
      "inputs": [],
      "name": "maxTokenSupply",
      "outputs": [
        {
          "internalType": "uint256",
          "name": "",
          "type": "uint256"
        }
      ],
      "stateMutability": "view",
      "type": "function"
    },
    {
      "inputs": [
        {
          "internalType": "uint256",
          "name": "numberOfTokens",
          "type": "uint256"
        }
      ],
      "name": "mint",
      "outputs": [],
      "stateMutability": "payable",
      "type": "function"
    },
    {
      "inputs": [],
      "name": "name",
      "outputs": [
        {
          "internalType": "string",
          "name": "",
          "type": "string"
        }
      ],
      "stateMutability": "view",
      "type": "function"
    },
    {
      "inputs": [],
      "name": "owner",
      "outputs": [
        {
          "internalType": "address",
          "name": "",
          "type": "address"
        }
      ],
      "stateMutability": "view",
      "type": "function"
    },
    {
      "inputs": [
        {
          "internalType": "uint256",
          "name": "tokenId",
          "type": "uint256"
        }
      ],
      "name": "ownerOf",
      "outputs": [
        {
          "internalType": "address",
          "name": "",
          "type": "address"
        }
      ],
      "stateMutability": "view",
      "type": "function"
    },
    {
      "inputs": [
        {
          "internalType": "uint256",
          "name": "tokenId",
          "type": "uint256"
        }
      ],
      "name": "redeem",
      "outputs": [],
      "stateMutability": "nonpayable",
      "type": "function"
    },
    {
      "inputs": [],
      "name": "renounceOwnership",
      "outputs": [],
      "stateMutability": "nonpayable",
      "type": "function"
    },
    {
      "inputs": [],
      "name": "reserve",
      "outputs": [],
      "stateMutability": "nonpayable",
      "type": "function"
    },
    {
      "inputs": [
        {
          "internalType": "address",
          "name": "from",
          "type": "address"
        },
        {
          "internalType": "address",
          "name": "to",
          "type": "address"
        },
        {
          "internalType": "uint256",
          "name": "tokenId",
          "type": "uint256"
        }
      ],
      "name": "safeTransferFrom",
      "outputs": [],
      "stateMutability": "nonpayable",
      "type": "function"
    },
    {
      "inputs": [
        {
          "internalType": "address",
          "name": "from",
          "type": "address"
        },
        {
          "internalType": "address",
          "name": "to",
          "type": "address"
        },
        {
          "internalType": "uint256",
          "name": "tokenId",
          "type": "uint256"
        },
        {
          "internalType": "bytes",
          "name": "data",
          "type": "bytes"
        }
      ],
      "name": "safeTransferFrom",
      "outputs": [],
      "stateMutability": "nonpayable",
      "type": "function"
    },
    {
      "inputs": [],
      "name": "saleIsActive",
      "outputs": [
        {
          "internalType": "bool",
          "name": "",
          "type": "bool"
        }
      ],
      "stateMutability": "view",
      "type": "function"
    },
    {
      "inputs": [
        {
          "internalType": "address",
          "name": "operator",
          "type": "address"
        },
        {
          "internalType": "bool",
          "name": "approved",
          "type": "bool"
        }
      ],
      "name": "setApprovalForAll",
      "outputs": [],
      "stateMutability": "nonpayable",
      "type": "function"
    },
    {
      "inputs": [
        {
          "internalType": "string",
          "name": "baseURI_",
          "type": "string"
        }
      ],
      "name": "setBaseURI",
      "outputs": [],
      "stateMutability": "nonpayable",
      "type": "function"
    },
    {
      "inputs": [
        {
          "internalType": "string",
          "name": "provenance",
          "type": "string"
        }
      ],
      "name": "setProvenance",
      "outputs": [],
      "stateMutability": "nonpayable",
      "type": "function"
    },
    {
      "inputs": [
        {
          "internalType": "bool",
          "name": "newState",
          "type": "bool"
        }
      ],
      "name": "setSaleState",
      "outputs": [],
      "stateMutability": "nonpayable",
      "type": "function"
    },
    {
      "inputs": [],
      "name": "shareholderAddress",
      "outputs": [
        {
          "internalType": "address payable",
          "name": "",
          "type": "address"
        }
      ],
      "stateMutability": "view",
      "type": "function"
    },
    {
      "inputs": [
        {
          "internalType": "bytes4",
          "name": "interfaceId",
          "type": "bytes4"
        }
      ],
      "name": "supportsInterface",
      "outputs": [
        {
          "internalType": "bool",
          "name": "",
          "type": "bool"
        }
      ],
      "stateMutability": "view",
      "type": "function"
    },
    {
      "inputs": [],
      "name": "symbol",
      "outputs": [
        {
          "internalType": "string",
          "name": "",
          "type": "string"
        }
      ],
      "stateMutability": "view",
      "type": "function"
    },
    {
      "inputs": [
        {
          "internalType": "uint256",
          "name": "index",
          "type": "uint256"
        }
      ],
      "name": "tokenByIndex",
      "outputs": [
        {
          "internalType": "uint256",
          "name": "",
          "type": "uint256"
        }
      ],
      "stateMutability": "view",
      "type": "function"
    },
    {
      "inputs": [
        {
          "internalType": "address",
          "name": "owner",
          "type": "address"
        },
        {
          "internalType": "uint256",
          "name": "index",
          "type": "uint256"
        }
      ],
      "name": "tokenOfOwnerByIndex",
      "outputs": [
        {
          "internalType": "uint256",
          "name": "",
          "type": "uint256"
        }
      ],
      "stateMutability": "view",
      "type": "function"
    },
    {
      "inputs": [
        {
          "internalType": "uint256",
          "name": "tokenId",
          "type": "uint256"
        }
      ],
      "name": "tokenURI",
      "outputs": [
        {
          "internalType": "string",
          "name": "",
          "type": "string"
        }
      ],
      "stateMutability": "view",
      "type": "function"
    },
    {
      "inputs": [],
      "name": "totalSupply",
      "outputs": [
        {
          "internalType": "uint256",
          "name": "",
          "type": "uint256"
        }
      ],
      "stateMutability": "view",
      "type": "function"
    },
    {
      "inputs": [
        {
          "internalType": "address",
          "name": "from",
          "type": "address"
        },
        {
          "internalType": "address",
          "name": "to",
          "type": "address"
        },
        {
          "internalType": "uint256",
          "name": "tokenId",
          "type": "uint256"
        }
      ],
      "name": "transferFrom",
      "outputs": [],
      "stateMutability": "nonpayable",
      "type": "function"
    },
    {
      "inputs": [
        {
          "internalType": "address",
          "name": "newOwner",
          "type": "address"
        }
      ],
      "name": "transferOwnership",
      "outputs": [],
      "stateMutability": "nonpayable",
      "type": "function"
    },
    {
      "inputs": [],
      "name": "withdraw",
      "outputs": [],
      "stateMutability": "nonpayable",
      "type": "function"
    }
  ],
  "bytecode": "0x60a0604052600c805460ff191690553480156200001b57600080fd5b50604051620029cf380380620029cf8339810160408190526200003e9162000180565b6040518060400160405280601381526020017f456420696e204265747765656e204c696e657300000000000000000000000000815250604051806040016040528060058152602001641159105c9d60da1b8152508160009081620000a3919062000320565b506001620000b2828262000320565b505050620000cf620000c96200011460201b60201c565b62000118565b6001600160a01b038516620000e357600080fd5b6001600160a01b038516608052600d620000fe858262000320565b50600e92909255600f5560105550620003ec9050565b3390565b600a80546001600160a01b038381166001600160a01b0319831681179093556040519116919082907f8be0079c531659141344cd1fd0a4f28419497f9722a3daafe3b4186f6b6457e090600090a35050565b634e487b7160e01b600052604160045260246000fd5b600080600080600060a086880312156200019957600080fd5b85516001600160a01b0381168114620001b157600080fd5b602087810151919650906001600160401b0380821115620001d157600080fd5b818901915089601f830112620001e657600080fd5b815181811115620001fb57620001fb6200016a565b604051601f8201601f19908116603f011681019083821181831017156200022657620002266200016a565b816040528281528c868487010111156200023f57600080fd5b600093505b8284101562000263578484018601518185018701529285019262000244565b6000928101909501919091525050506040870151606088015160809098015196999198509695945092505050565b600181811c90821680620002a657607f821691505b602082108103620002c757634e487b7160e01b600052602260045260246000fd5b50919050565b601f8211156200031b57600081815260208120601f850160051c81016020861015620002f65750805b601f850160051c820191505b81811015620003175782815560010162000302565b5050505b505050565b81516001600160401b038111156200033c576200033c6200016a565b62000354816200034d845462000291565b84620002cd565b602080601f8311600181146200038c5760008415620003735750858301515b600019600386901b1c1916600185901b17855562000317565b600085815260208120601f198616915b82811015620003bd578886015182559484019460019091019084016200039c565b5085821015620003dc5787850151600019600388901b60f8161c191681555b5050505050600190811b01905550565b6080516125b962000416600039600081816104b301528181610918015261096f01526125b96000f3fe6080604052600436106101f95760003560e01c80636373a6b11161010d578063b88d4fde116100a0578063db006a751161006f578063db006a7514610592578063e985e9c5146105b2578063eb8d2444146105fb578063f2fde38b14610615578063ffe630b51461063557600080fd5b8063b88d4fde1461051d578063c4e370951461053d578063c87b56dd1461055d578063cd3293de1461057d57600080fd5b8063943d40e7116100dc578063943d40e7146104a157806395d89b41146104d5578063a0712d68146104ea578063a22cb465146104fd57600080fd5b80636373a6b11461043957806370a082311461044e578063715018a61461046e5780638da5cb5b1461048357600080fd5b80632f745c591161019057806342966c681161015f57806342966c68146103a35780634f6ccce7146103c357806350f7c204146103e357806355f804b3146103f95780636352211e1461041957600080fd5b80632f745c591461031e57806332d33cd01461033e5780633ccfd60b1461036e57806342842e0e1461038357600080fd5b806309aa3dcf116101cc57806309aa3dcf146102af57806313faede6146102d357806318160ddd146102e957806323b872dd146102fe57600080fd5b806301ffc9a7146101fe57806306fdde0314610233578063081812fc14610255578063095ea7b31461028d575b600080fd5b34801561020a57600080fd5b5061021e610219366004611f27565b610655565b60405190151581526020015b60405180910390f35b34801561023f57600080fd5b50610248610666565b60405161022a9190611f94565b34801561026157600080fd5b50610275610270366004611fa7565b6106f8565b6040516001600160a01b03909116815260200161022a565b34801561029957600080fd5b506102ad6102a8366004611fdc565b61071f565b005b3480156102bb57600080fd5b506102c560105481565b60405190815260200161022a565b3480156102df57600080fd5b506102c5600e5481565b3480156102f557600080fd5b506008546102c5565b34801561030a57600080fd5b506102ad610319366004612006565b610839565b34801561032a57600080fd5b506102c5610339366004611fdc565b61086b565b34801561034a57600080fd5b5061021e610359366004611fa7565b60009081526011602052604090205460ff1690565b34801561037a57600080fd5b506102ad610901565b34801561038f57600080fd5b506102ad61039e366004612006565b6109b9565b3480156103af57600080fd5b506102ad6103be366004611fa7565b6109d4565b3480156103cf57600080fd5b506102c56103de366004611fa7565b610aeb565b3480156103ef57600080fd5b506102c5600f5481565b34801561040557600080fd5b506102ad6104143660046120ce565b610b7e565b34801561042557600080fd5b50610275610434366004611fa7565b610b96565b34801561044557600080fd5b50610248610bf6565b34801561045a57600080fd5b506102c5610469366004612117565b610c84565b34801561047a57600080fd5b506102ad610d0a565b34801561048f57600080fd5b50600a546001600160a01b0316610275565b3480156104ad57600080fd5b506102757f000000000000000000000000000000000000000000000000000000000000000081565b3480156104e157600080fd5b50610248610d1e565b6102ad6104f8366004611fa7565b610d2d565b34801561050957600080fd5b506102ad610518366004612142565b610f26565b34801561052957600080fd5b506102ad610538366004612175565b610f31565b34801561054957600080fd5b506102ad6105583660046121f1565b610f69565b34801561056957600080fd5b50610248610578366004611fa7565b610f84565b34801561058957600080fd5b506102ad610feb565b34801561059e57600080fd5b506102ad6105ad366004611fa7565b611031565b3480156105be57600080fd5b5061021e6105cd36600461220c565b6001600160a01b03918216600090815260056020908152604080832093909416825291909152205460ff1690565b34801561060757600080fd5b50600c5461021e9060ff1681565b34801561062157600080fd5b506102ad610630366004612117565b6111a3565b34801561064157600080fd5b506102ad6106503660046120ce565b61121c565b600061066082611230565b92915050565b60606000805461067590612236565b80601f01602080910402602001604051908101604052809291908181526020018280546106a190612236565b80156106ee5780601f106106c3576101008083540402835291602001916106ee565b820191906000526020600020905b8154815290600101906020018083116106d157829003601f168201915b5050505050905090565b600061070382611255565b506000908152600460205260409020546001600160a01b031690565b600061072a82610b96565b9050806001600160a01b0316836001600160a01b03160361079c5760405162461bcd60e51b815260206004820152602160248201527f4552433732313a20617070726f76616c20746f2063757272656e74206f776e656044820152603960f91b60648201526084015b60405180910390fd5b336001600160a01b03821614806107b857506107b881336105cd565b61082a5760405162461bcd60e51b815260206004820152603d60248201527f4552433732313a20617070726f76652063616c6c6572206973206e6f7420746f60448201527f6b656e206f776e6572206f7220617070726f76656420666f7220616c6c0000006064820152608401610793565b61083483836112b4565b505050565b610844335b82611322565b6108605760405162461bcd60e51b815260040161079390612270565b6108348383836113a1565b600061087683610c84565b82106108d85760405162461bcd60e51b815260206004820152602b60248201527f455243373231456e756d657261626c653a206f776e657220696e646578206f7560448201526a74206f6620626f756e647360a81b6064820152608401610793565b506001600160a01b03919091166000908152600660209081526040808320938352929052205490565b610909611512565b60405147906001600160a01b037f0000000000000000000000000000000000000000000000000000000000000000169082156108fc029083906000818181858888f19350505050158015610961573d6000803e3d6000fd5b506040516001600160a01b037f000000000000000000000000000000000000000000000000000000000000000016907ff67611512e0a2d90c96fd3f08dca4971bc45fba9dc679eabe839a32abbe58a8e90600090a250565b61083483838360405180602001604052806000815250610f31565b6000818152600260205260409020546001600160a01b0316610a2f5760405162461bcd60e51b8152602060048201526014602482015273151bdad95b88191bd95cc81b9bdd08195e1a5cdd60621b6044820152606401610793565b33610a3982610b96565b6001600160a01b031614610a9f5760405162461bcd60e51b815260206004820152602760248201527f4f6e6c7920746865206f776e6572206f662074686520746f6b656e2063616e20604482015266189d5c9b881a5d60ca1b6064820152608401610793565b610aa88161156c565b600081815260116020526040808220805460ff1916905551829133917fcc16f5dbb4873280815c1ee09dbd06736cffcc184412cf7a71a0fdb75d397ca59190a350565b6000610af660085490565b8210610b595760405162461bcd60e51b815260206004820152602c60248201527f455243373231456e756d657261626c653a20676c6f62616c20696e646578206f60448201526b7574206f6620626f756e647360a01b6064820152608401610793565b60088281548110610b6c57610b6c6122bd565b90600052602060002001549050919050565b610b86611512565b600d610b928282612321565b5050565b6000818152600260205260408120546001600160a01b0316806106605760405162461bcd60e51b8152602060048201526018602482015277115490cdcc8c4e881a5b9d985b1a59081d1bdad95b88125160421b6044820152606401610793565b600b8054610c0390612236565b80601f0160208091040260200160405190810160405280929190818152602001828054610c2f90612236565b8015610c7c5780601f10610c5157610100808354040283529160200191610c7c565b820191906000526020600020905b815481529060010190602001808311610c5f57829003601f168201915b505050505081565b60006001600160a01b038216610cee5760405162461bcd60e51b815260206004820152602960248201527f4552433732313a2061646472657373207a65726f206973206e6f7420612076616044820152683634b21037bbb732b960b91b6064820152608401610793565b506001600160a01b031660009081526003602052604090205490565b610d12611512565b610d1c600061159a565b565b60606001805461067590612236565b600c5460ff16610d8a5760405162461bcd60e51b815260206004820152602260248201527f53616c65206d7573742062652061637469766520746f206d696e7420546f6b656044820152616e7360f01b6064820152608401610793565b601054811115610ddc5760405162461bcd60e51b815260206004820152601b60248201527f4578636565646564206d617820746f6b656e20707572636861736500000000006044820152606401610793565b600f5481610de960085490565b610df391906123f7565b1115610e545760405162461bcd60e51b815260206004820152602a60248201527f507572636861736520776f756c6420657863656564206d617820737570706c79604482015269206f6620746f6b656e7360b01b6064820152608401610793565b3481600e54610e63919061240a565b1115610eb15760405162461bcd60e51b815260206004820152601f60248201527f45746865722076616c75652073656e74206973206e6f7420636f7272656374006044820152606401610793565b60005b81811015610b92576000610ec760085490565b9050600f54610ed560085490565b1015610f1357610ee533826115ec565b604051819033907f0f6798a560793a54c3bcfe86a93cde1e73087d944c0ea20544137d412139688590600090a35b5080610f1e81612421565b915050610eb4565b610b92338383611606565b610f3b3383611322565b610f575760405162461bcd60e51b815260040161079390612270565b610f63848484846116d4565b50505050565b610f71611512565b600c805460ff1916911515919091179055565b6060610f8f82611255565b6000610f99611707565b90506000815111610fb95760405180602001604052806000815250610fe4565b80610fc384611716565b604051602001610fd492919061243a565b6040516020818303038152906040525b9392505050565b610ff3611512565b6000610ffe60085490565b905060005b6029811015610b925761101f3361101a83856123f7565b6115ec565b8061102981612421565b915050611003565b6000818152600260205260409020546001600160a01b031661108c5760405162461bcd60e51b8152602060048201526014602482015273151bdad95b88191bd95cc81b9bdd08195e1a5cdd60621b6044820152606401610793565b3361109682610b96565b6001600160a01b0316146110fe5760405162461bcd60e51b815260206004820152602960248201527f4f6e6c7920746865206f776e6572206f662074686520746f6b656e2063616e206044820152681c995919595b481a5d60ba1b6064820152608401610793565b60008181526011602052604090205460ff161561115d5760405162461bcd60e51b815260206004820152601f60248201527f546f6b656e2068617320616c7265616479206265656e2072656465656d6564006044820152606401610793565b600081815260116020526040808220805460ff1916600117905551829133917f222838db2794d11532d940e8dec38ae307ed0b63cd97c233322e221f998767a69190a350565b6111ab611512565b6001600160a01b0381166112105760405162461bcd60e51b815260206004820152602660248201527f4f776e61626c653a206e6577206f776e657220697320746865207a65726f206160448201526564647265737360d01b6064820152608401610793565b6112198161159a565b50565b611224611512565b600b610b928282612321565b60006001600160e01b0319821663780e9d6360e01b14806106605750610660826117a9565b6000818152600260205260409020546001600160a01b03166112195760405162461bcd60e51b8152602060048201526018602482015277115490cdcc8c4e881a5b9d985b1a59081d1bdad95b88125160421b6044820152606401610793565b600081815260046020526040902080546001600160a01b0319166001600160a01b03841690811790915581906112e982610b96565b6001600160a01b03167f8c5be1e5ebec7d5bd14f71427d1e84f3dd0314c0f7b2291e5b200ac8c7c3b92560405160405180910390a45050565b60008061132e83610b96565b9050806001600160a01b0316846001600160a01b0316148061137557506001600160a01b0380821660009081526005602090815260408083209388168352929052205460ff165b806113995750836001600160a01b031661138e846106f8565b6001600160a01b0316145b949350505050565b826001600160a01b03166113b482610b96565b6001600160a01b0316146113da5760405162461bcd60e51b815260040161079390612469565b6001600160a01b03821661143c5760405162461bcd60e51b8152602060048201526024808201527f4552433732313a207472616e7366657220746f20746865207a65726f206164646044820152637265737360e01b6064820152608401610793565b61144983838360016117f9565b826001600160a01b031661145c82610b96565b6001600160a01b0316146114825760405162461bcd60e51b815260040161079390612469565b600081815260046020908152604080832080546001600160a01b03199081169091556001600160a01b0387811680865260038552838620805460001901905590871680865283862080546001019055868652600290945282852080549092168417909155905184937fddf252ad1be2c89b69c2b068fc378daa952ba7f163c4a11628f55a4df523b3ef91a4505050565b600a546001600160a01b03163314610d1c5760405162461bcd60e51b815260206004820181905260248201527f4f776e61626c653a2063616c6c6572206973206e6f7420746865206f776e65726044820152606401610793565b6115753361083e565b6115915760405162461bcd60e51b815260040161079390612270565b61121981611805565b600a80546001600160a01b038381166001600160a01b0319831681179093556040519116919082907f8be0079c531659141344cd1fd0a4f28419497f9722a3daafe3b4186f6b6457e090600090a35050565b610b928282604051806020016040528060008152506118a8565b816001600160a01b0316836001600160a01b0316036116675760405162461bcd60e51b815260206004820152601960248201527f4552433732313a20617070726f766520746f2063616c6c6572000000000000006044820152606401610793565b6001600160a01b03838116600081815260056020908152604080832094871680845294825291829020805460ff191686151590811790915591519182527f17307eab39ab6107e8899845ad3d59bd9653f200f220920489ca2b5937696c31910160405180910390a3505050565b6116df8484846113a1565b6116eb848484846118db565b610f635760405162461bcd60e51b8152600401610793906124ae565b6060600d805461067590612236565b60606000611723836119dc565b600101905060008167ffffffffffffffff81111561174357611743612042565b6040519080825280601f01601f19166020018201604052801561176d576020820181803683370190505b5090508181016020015b600019016f181899199a1a9b1b9c1cb0b131b232b360811b600a86061a8153600a850494508461177757509392505050565b60006001600160e01b031982166380ac58cd60e01b14806117da57506001600160e01b03198216635b5e139f60e01b145b8061066057506301ffc9a760e01b6001600160e01b0319831614610660565b610f6384848484611ab4565b600061181082610b96565b90506118208160008460016117f9565b61182982610b96565b600083815260046020908152604080832080546001600160a01b03199081169091556001600160a01b0385168085526003845282852080546000190190558785526002909352818420805490911690555192935084927fddf252ad1be2c89b69c2b068fc378daa952ba7f163c4a11628f55a4df523b3ef908390a45050565b6118b28383611be8565b6118bf60008484846118db565b6108345760405162461bcd60e51b8152600401610793906124ae565b60006001600160a01b0384163b156119d157604051630a85bd0160e11b81526001600160a01b0385169063150b7a029061191f903390899088908890600401612500565b6020604051808303816000875af192505050801561195a575060408051601f3d908101601f191682019092526119579181019061253d565b60015b6119b7573d808015611988576040519150601f19603f3d011682016040523d82523d6000602084013e61198d565b606091505b5080516000036119af5760405162461bcd60e51b8152600401610793906124ae565b805181602001fd5b6001600160e01b031916630a85bd0160e11b149050611399565b506001949350505050565b60008072184f03e93ff9f4daa797ed6e38ed64bf6a1f0160401b8310611a1b5772184f03e93ff9f4daa797ed6e38ed64bf6a1f0160401b830492506040015b6d04ee2d6d415b85acef81000000008310611a47576d04ee2d6d415b85acef8100000000830492506020015b662386f26fc100008310611a6557662386f26fc10000830492506010015b6305f5e1008310611a7d576305f5e100830492506008015b6127108310611a9157612710830492506004015b60648310611aa3576064830492506002015b600a83106106605760010192915050565b6001811115611b235760405162461bcd60e51b815260206004820152603560248201527f455243373231456e756d657261626c653a20636f6e7365637574697665207472604482015274185b9cd9995c9cc81b9bdd081cdd5c1c1bdc9d1959605a1b6064820152608401610793565b816001600160a01b038516611b7f57611b7a81600880546000838152600960205260408120829055600182018355919091527ff3f7a9fe364faab93b216da50a3214154f22a0a2b415b23a84c8169e8b636ee30155565b611ba2565b836001600160a01b0316856001600160a01b031614611ba257611ba28582611d81565b6001600160a01b038416611bbe57611bb981611e1e565b611be1565b846001600160a01b0316846001600160a01b031614611be157611be18482611ecd565b5050505050565b6001600160a01b038216611c3e5760405162461bcd60e51b815260206004820181905260248201527f4552433732313a206d696e7420746f20746865207a65726f20616464726573736044820152606401610793565b6000818152600260205260409020546001600160a01b031615611ca35760405162461bcd60e51b815260206004820152601c60248201527f4552433732313a20746f6b656e20616c7265616479206d696e746564000000006044820152606401610793565b611cb16000838360016117f9565b6000818152600260205260409020546001600160a01b031615611d165760405162461bcd60e51b815260206004820152601c60248201527f4552433732313a20746f6b656e20616c7265616479206d696e746564000000006044820152606401610793565b6001600160a01b038216600081815260036020908152604080832080546001019055848352600290915280822080546001600160a01b0319168417905551839291907fddf252ad1be2c89b69c2b068fc378daa952ba7f163c4a11628f55a4df523b3ef908290a45050565b60006001611d8e84610c84565b611d98919061255a565b600083815260076020526040902054909150808214611deb576001600160a01b03841660009081526006602090815260408083208584528252808320548484528184208190558352600790915290208190555b5060009182526007602090815260408084208490556001600160a01b039094168352600681528383209183525290812055565b600854600090611e309060019061255a565b60008381526009602052604081205460088054939450909284908110611e5857611e586122bd565b906000526020600020015490508060088381548110611e7957611e796122bd565b6000918252602080832090910192909255828152600990915260408082208490558582528120556008805480611eb157611eb161256d565b6001900381819060005260206000200160009055905550505050565b6000611ed883610c84565b6001600160a01b039093166000908152600660209081526040808320868452825280832085905593825260079052919091209190915550565b6001600160e01b03198116811461121957600080fd5b600060208284031215611f3957600080fd5b8135610fe481611f11565b60005b83811015611f5f578181015183820152602001611f47565b50506000910152565b60008151808452611f80816020860160208601611f44565b601f01601f19169290920160200192915050565b602081526000610fe46020830184611f68565b600060208284031215611fb957600080fd5b5035919050565b80356001600160a01b0381168114611fd757600080fd5b919050565b60008060408385031215611fef57600080fd5b611ff883611fc0565b946020939093013593505050565b60008060006060848603121561201b57600080fd5b61202484611fc0565b925061203260208501611fc0565b9150604084013590509250925092565b634e487b7160e01b600052604160045260246000fd5b600067ffffffffffffffff8084111561207357612073612042565b604051601f8501601f19908116603f0116810190828211818310171561209b5761209b612042565b816040528093508581528686860111156120b457600080fd5b858560208301376000602087830101525050509392505050565b6000602082840312156120e057600080fd5b813567ffffffffffffffff8111156120f757600080fd5b8201601f8101841361210857600080fd5b61139984823560208401612058565b60006020828403121561212957600080fd5b610fe482611fc0565b80358015158114611fd757600080fd5b6000806040838503121561215557600080fd5b61215e83611fc0565b915061216c60208401612132565b90509250929050565b6000806000806080858703121561218b57600080fd5b61219485611fc0565b93506121a260208601611fc0565b925060408501359150606085013567ffffffffffffffff8111156121c557600080fd5b8501601f810187136121d657600080fd5b6121e587823560208401612058565b91505092959194509250565b60006020828403121561220357600080fd5b610fe482612132565b6000806040838503121561221f57600080fd5b61222883611fc0565b915061216c60208401611fc0565b600181811c9082168061224a57607f821691505b60208210810361226a57634e487b7160e01b600052602260045260246000fd5b50919050565b6020808252602d908201527f4552433732313a2063616c6c6572206973206e6f7420746f6b656e206f776e6560408201526c1c881bdc88185c1c1c9bdd9959609a1b606082015260800190565b634e487b7160e01b600052603260045260246000fd5b601f82111561083457600081815260208120601f850160051c810160208610156122fa5750805b601f850160051c820191505b8181101561231957828155600101612306565b505050505050565b815167ffffffffffffffff81111561233b5761233b612042565b61234f816123498454612236565b846122d3565b602080601f831160018114612384576000841561236c5750858301515b600019600386901b1c1916600185901b178555612319565b600085815260208120601f198616915b828110156123b357888601518255948401946001909101908401612394565b50858210156123d15787850151600019600388901b60f8161c191681555b5050505050600190811b01905550565b634e487b7160e01b600052601160045260246000fd5b80820180821115610660576106606123e1565b8082028115828204841417610660576106606123e1565b600060018201612433576124336123e1565b5060010190565b6000835161244c818460208801611f44565b835190830190612460818360208801611f44565b01949350505050565b60208082526025908201527f4552433732313a207472616e736665722066726f6d20696e636f72726563742060408201526437bbb732b960d91b606082015260800190565b60208082526032908201527f4552433732313a207472616e7366657220746f206e6f6e20455243373231526560408201527131b2b4bb32b91034b6b83632b6b2b73a32b960711b606082015260800190565b6001600160a01b038581168252841660208201526040810183905260806060820181905260009061253390830184611f68565b9695505050505050565b60006020828403121561254f57600080fd5b8151610fe481611f11565b81810381811115610660576106606123e1565b634e487b7160e01b600052603160045260246000fdfea26469706673582212204891572699d9c640b518c883cdc43c32e87bc17f5f55a870e215150224ba490c64736f6c63430008120033",
  "linkReferences": {},
  "deployedLinkReferences": {}
}